:100000000C94D7000C94F4000C94F4000C94F400BD
:100010000C94F4000C94F4000C94F4000C94F40090
:100020000C94F4000C94F4000C94F4000C94F40080
:100030000C94F4000C94F4000C94F4000C94F40070
:100040000C94F4000C94F4000C94F4000C94F40060
:100050000C94F4000C94F4000C94F4000C94F40050
:100060000C94F4000C949B050C94F4000C94A905DA
:100070000C94F4000C94F4000C94F4000C94F40030
:100080000C94F4000C94F4000C94F4000C94F40020
:100090000C9478030C94F4000C94F4000C94F40089
:1000A0000C94F4000C94F4000C94F4006E616E0057
:1000B000696E660000407A10F35A00A0724E18096B
:1000C0000010A5D4E80000E87648170000E40B54BF
:1000D000020000CA9A3B000000E1F505000080968E
:1000E0009800000040420F000000A08601000000C0
:1000F000102700000000E80300000000640000007A
:1001000000000A00000000000100000000002C7642
:10011000D888DC674F0823DFC1DFAE59E1B1B7965D
:10012000E5E3E453C63AE651997696E8E6C28426BA
:10013000EB898C9B62ED407C6FFCEFBC9C9F40F296
:10014000BAA56FA5F490055A2AF75C936B6CF96712
:100150006DC11BFCE0E40D47FEF520E6B500D0EDD7
:10016000902E0300943577050080841E080000203F
:100170004E0A000000C80C333333330F986E1283DD
:100180001141EF8D2114893BE65516CFFEE6DB18B1
:10019000D1844B381BF77C1D901DA4BBE424203276
:1001A00084725E228100C9F124ECA1E53D2711246F
:1001B0001FBECFEFDAE0DEBFCDBF11E0A0E0B1E0BF
:1001C000E8E2FEE102C005900D92AA31B107D9F72D
:1001D00011E0AAE1B1E001C01D92A936B107E1F733
:1001E0000E9445060C94120F0C940000EF92FF92AF
:1001F0000F931F938C017B01FC01718160E02081D2
:1002000030E0622B732B882777FD8095982F0E9412
:100210005B0720E030E040E85DE30E949607F701CD
:100220006083718382839383F801738160E022810C
:1002300030E0622B732B882777FD8095982F0E94E2
:100240005B0720E030E040E85DE30E949607F7019D
:100250006483758386839783F801758160E02481C8
:1002600030E0622B732B882777FD8095982F0E94B2
:100270005B0720E030E040E85DE30E949607F7016D
:1002800060877187828793871F910F91FF90EF900E
:1002900008958F929F92AF92BF92CF92DF92EF928A
:1002A000FF920F931F93DF93CF930F92CDB7DEB7DB
:1002B0006C014B01498359017E010894E11CF11C3A
:1002C000C60168E270E040E050E0970101E010E014
:1002D0000E944905611571058105910589F3EE2498
:1002E000FF24C60168E270E041E050E0940185011E
:1002F0000E9449059B01AC016115710581059105BD
:1003000039F40894E11CF11C84E6E816F10449F77D
:10031000622F732F842F952F0F90CF91DF911F9114
:100320000F91FF90EF90DF90CF90BF90AF909F9094
:100330008F9008954AE126E030E00E944901089537
:10034000AF92BF92CF92DF92EF92FF920F931F93E3
:10035000DF93CF9300D0CDB7DEB76C0149836A83BA
:10036000EE24FF245E010894A11CB11CC60168E2C2
:1003700070E040E050E0950102E010E00E94490585
:100380009B01AC01611571058105910539F4089453
:10039000E11CF11C84E6E816F10441F7622F732F8B
:1003A000842F952F0F900F90CF91DF911F910F9178
:1003B000FF90EF90DF90CF90BF90AF90089520E72F
:1003C00037E140E951E0FA013197F1F7215030402F
:1003D000D1F76CE14DE30E94A001089590931C01B8
:1003E00080931B0108959B01AC0160E074E284EFEF
:1003F00090E00E94D10B2051304040405040CA0153
:10040000B90128E030E040E050E00E94F30B209377
:10041000B80085E88093BC00089580911A01882374
:1004200071F480911B0190911C010E944304892B5F
:1004300031F085EE8093BC0081E080931A0108952D
:100440001F9380911B0190911C01009709F44EC1EC
:100450000E944304892B09F449C18091B90090E0BE
:10046000887F90708832910509F466C089329105C1
:100470008CF48031910539F18131910524F408978C
:1004800009F021C120C08831910591F1809709F0D0
:100490001AC142C08834910509F4BAC08934910563
:1004A0004CF48033910509F479C08034910509F04A
:1004B0000AC198C08035910509F4BAC08835910504
:1004C00009F001C1E0C080911B0190911C010E94C4
:1004D0009C03182F80911B0190911C010E94ED0339
:1004E000110F182B1093BB0085E88093BC00FBC054
:1004F00080911B0190911C0160E070E00E94D70385
:100500008093BB0085E88093BC0081E090E09093ED
:100510001E0180931D01E7C085ED8093BC00809192
:100520001B0190911C010E94900410921E011092D8
:100530001D0110921A01DAC080911B0190911C01DB
:100540000E94AC0360911D0170911E0186179707F0
:1005500081F485ED8093BC0080911B0190911C017A
:100560000E94900410921A0110921E0110921D0117
:10057000BDC080911B0190911C010E94D703809304
:10058000BB0085E88093BC0080911D0190911E0105
:10059000019690931E0180931D01A5C085ED809367
:1005A000BC0080911B0190911C010E94AC03209122
:1005B0001D0130911E018217930739F480911B01B0
:1005C00090911C010E94900406C080911B019091A3
:1005D0001C010E94900410921A0110921E011092A8
:1005E0001D0184C080911B0190911C010E94AC03ED
:1005F000019720911D0130911E018217930721F46C
:1006000085E88093BC006FC085EC8093BC006BC014
:1006100085ED8093BC0080911B0190911C010E948C
:10062000900410921E0110921D0110921A015EC0DA
:100630004091BB0060911D0170911E0180911B01D2
:1006400090911C010E94BC0380911D0190911E019C
:10065000019690931E0180931D0180911B01909142
:100660001C010E94AC03019720911D0130911E01D5
:100670008217930721F485E88093BC0034C085EC91
:100680008093BC0030C04091BB0060911D0170910F
:100690001E0180911B0190911C010E94BC031092CD
:1006A0001E0110921D0185ED8093BC0080911B01FD
:1006B00090911C010E94900410921E0110921D0145
:1006C00010921A0113C085ED8093BC0080911B012C
:1006D00090911C010E94900410921E0110921D0125
:1006E00010921A0103C081E080931A011F910895AE
:1006F0001F920F920FB60F9211242F933F934F9397
:100700005F936F937F938F939F93AF93BF93EF9379
:10071000FF930E942002FF91EF91BF91AF919F91B3
:100720008F917F916F915F914F913F912F910F909A
:100730000FBE0F901F901895FC01009741F00280AA
:10074000F381E02D309719F02081318102C020E043
:1007500030E0822F932F0895FC01009741F0028032
:10076000F381E02D309719F02681378102C020E017
:1007700030E0822F932F0895FC01009799F00280BA
:10078000F381E02D309771F08681978168177907A2
:100790004CF40480F581E02DE60FF71F408321E043
:1007A00030E002C020E030E0822F932F0895FC015A
:1007B000009789F00280F381E02D309761F0868107
:1007C0009781681779073CF40480F581E02DE60FE6
:1007D000F71F8081089580E00895FC01009741F0A3
:1007E0000280F381E02D309719F02281338102C01D
:1007F00020E030E0822F932F0895DC010097D1F1A3
:1008000061157105B9F1F89414968D919C91159725
:10081000019615969C938E931497ED91FC911197E8
:10082000309759F071876087ED91FC911197808521
:10083000918511969C938E9303C011967C936E9331
:10084000ED91FC9111971186108612968D919C91D5
:100850001397892B39F48D919C91119713969C9342
:100860008E9312977894ED91FC912285338544857F
:10087000558504C020E030E040E050E0622F732F47
:10088000842F952F0895FC01009719F420E030E0A3
:1008900002C024813581822F932F0895FC01009797
:1008A00011F14115510561057105E9F00280F381EF
:1008B000E02D3097C1F082859385A485B585841796
:1008C0009507A607B70751F411C082859385A485C3
:1008D000B58584179507A607B70741F00084F18511
:1008E000E02D309791F720E030E002C021E030E0C9
:1008F000822F932F0895CF93DF93EC01009769F037
:100900008A819B81892B31F48C819D81009711F024
:100910000E940E0DCE010E940E0DDF91CF91089521
:10092000CF93DF93EC01009729F1F8948A819B81A2
:10093000892B01F18C819D8101979D838C83EA81B4
:10094000FB8188819981E817F90729F419821882B7
:100950001B821A8204C0808591859B838A83CF0184
:100960000E947B047894EA81FB812285338544854B
:10097000558504C020E030E040E050E0622F732F46
:10098000842F952FDF91CF91089586E090E00E940B
:10099000610CFC01309731F01382128211821082B7
:1009A000158214828E2F9F2F08958F929F92AF925F
:1009B000BF92CF92DF92EF92FF920F931F93CF934C
:1009C000DF936C018B01B42EA52EF22EE32E8EE068
:1009D00090E00E94610CEC01209709F44BC00115D6
:1009E0001105C9F48F2D9E2D0E94610C9C013D8341
:1009F0002C832115310531F4CE010E940E0DC0E08B
:100A0000D0E038C0822F932F6B2D7A2D4F2D5E2D85
:100A10000E94490E02C0BC82AD82D982C8821B836B
:100A20000A83FE82EF828091160190911701A091B6
:100A30001801B09119018A879B87AC87BD87019601
:100A4000A11DB11D8093160190931701A093180169
:100A5000B09319010097A105B10561F481E090E020
:100A6000A0E0B0E08093160190931701A0931801C5
:100A7000B09319018C2F9D2FDF91CF911F910F9172
:100A8000FF90EF90DF90CF90BF90AF909F908F90AE
:100A900008950F931F93CF93DF93EC01009779F0A4
:100AA000CB01BA01A90198010E94D504BC010097AD
:100AB00031F0CE010E94FD039B01AC0104C020E097
:100AC00030E040E050E0622F732F842F952FDF91AC
:100AD000CF911F910F910895482F2091610130917E
:100AE0006201203431051CF020E030E01CC0809110
:100AF000630190916401FC01EF5DFE4F408301961C
:100B000090936401809363018034910524F01092E6
:100B1000640110926301C901019690936201809370
:100B2000610121E030E0822F932F089580916101CF
:100B30009091620108951F920F920FB60F921124A7
:100B40008F938091CE008F910F900FBE0F901F90CA
:100B500018951F920F920FB60F9211242F933F9367
:100B60004F935F936F937F938F939F93AF93BF93B5
:100B7000EF93FF930E949605892BF9F080911F0156
:100B800090912001FC01EF5DFE4F20812093CE006B
:100B900001969093200180931F018034910524F0E9
:100BA0001092200110921F018091610190916201C9
:100BB00001979093620180936101FF91EF91BF9142
:100BC000AF919F918F917F916F915F914F913F91E5
:100BD0002F910F900FBE0F901F90189588E090E016
:100BE0009093CD008093CC00E9ECF0E08081806CA4
:100BF00080838081886180830895E9ECF0E08081C2
:100C00008F7380830E949605892B19F18091C8000B
:100C100085FF1FC080911F0190912001FC01EF5DB5
:100C2000FE4F20812093CE00019690932001809367
:100C30001F018034910524F01092200110921F01B1
:100C4000809161019091620101979093620180937C
:100C50006101E9ECF0E08081806C80830895CF939E
:100C6000DF93FC018081882369F0EF0102C00E94BC
:100C7000FD0588810E946C05892BC9F32196888126
:100C80008823B9F7DF91CF9108952F923F924F9229
:100C90005F926F927F928F929F92AF92BF92CF920C
:100CA000DF92EF92FF920F931F93DF93CF93CDB715
:100CB000DEB7CB57D0400FB6F894DEBF0FBECDBF26
:100CC000E5E5F0E0808180688083E1E6F0E080E89F
:100CD000808310820E94F3010E94EE05E7E2F0E0BB
:100CE0008081806480830E94C5045C010E94EE01C3
:100CF000C5010E94DF0186E3898381E090E061E025
:100D000070E00E94450CEA969FAF8EAFEA97C5014E
:100D100068E270E040E050E09E012F5F3F4F01E04D
:100D200010E00E9449051B012C01C50168E270E03A
:100D300041E050E0EA962EAD3FADEA970E944905AA
:100D4000DE01129686E0FD0111928A95E9F79E0177
:100D5000285F3F4F8CE0F90111928A95E9F7C501B0
:100D6000BD010E949A013B014C01CC24DD24760197
:100D7000CE014896EC969FAF8EAFEC970E940D0285
:100D80000E94FD05C501B201A1010E944E04892BFC
:100D9000C9F4C50168E270E040E050E09E012F5FB9
:100DA0003F4F01E010E00E9449051B012C01C501E5
:100DB00068E270E041E050E0EA962EAD3FADEA9780
:100DC0000E944905C501B401A3010E944E04892B6C
:100DD00041F4C501BE016E5F7F4F0E949A013B0145
:100DE0004C010894C11CD11CE11CF11C99E8C916E6
:100DF00093E1D90690E0E90690E0F9060CF4BECF45
:100E0000CE010296BE01685F7F4F0E94F6001C8AE9
:100E10001D8A1E8A1F8AEC96AEADBFADEC97E0E648
:100E20001D92EA95E9F78DB79EB742970FB6F894F1
:100E30009EBF0FBE8DBFEDB7FEB73196A4E1B0E007
:100E4000AC0FBD1FB183A08380E091E093838283C8
:100E5000EA96AEADBFADEA978C9184831582888502
:100E60009985AA85BB8586839783A087B1878C8562
:100E70009D85AE85BF8582879387A487B58788893E
:100E80009989AA89BB8986879787A08BB18B0E9495
:100E9000900EEDB7FEB772960FB6F894FEBF0FBE78
:100EA000EDBFCE0144960E942F06CC24DD247601AE
:100EB00065CFE89409C097FB3EF4909580957095B6
:100EC00061957F4F8F4F9F4F9923A9F0F92F96E996
:100ED000BB279395F695879577956795B795F1110B
:100EE000F8CFFAF4BB0F11F460FF1BC06F5F7F4FA8
:100EF0008F4F9F4F16C0882311F096E911C07723BA
:100F000021F09EE8872F762F05C0662371F096E8C2
:100F1000862F70E060E02AF09A95660F771F881F91
:100F2000DAF7880F9695879597F908950BD078C0D2
:100F300069D028F06ED018F0952309F05AC05FC030
:100F40001124A2C07ED0A0F3959FD1F3950F50E05D
:100F5000551F629FF001729FBB27F00DB11D639F6B
:100F6000AA27F00DB11DAA1F649F6627B00DA11D11
:100F7000661F829F2227B00DA11D621F739FB00DB7
:100F8000A11D621F839FA00D611D221F749F332727
:100F9000A00D611D231F849F600D211D822F762FC0
:100FA0006A2F11249F5750408AF0E1F088234AF0BD
:100FB000EE0FFF1FBB1F661F771F881F9150504009
:100FC000A9F79E3F510570F014C05EC05F3FECF37F
:100FD000983EDCF3869577956795B795F795E795F5
:100FE0009F5FC1F7FE2B880F911D9695879597F906
:100FF000089597F99F6780E870E060E008959FEF9B
:1010000080EC089500240A9416161706180609069F
:10101000089500240A94121613061406050608956E
:10102000092E0394000C11F4882352F0BB0F40F4F6
:10103000BF2B11F460FF04C06F5F7F4F8F4F9F4F36
:10104000089557FD9058440F551F59F05F3F71F0B8
:101050004795880F97FB991F61F09F3F79F087951F
:101060000895121613061406551FF2CF4695F1DFA8
:1010700008C0161617061806991FF1CF8695710538
:10108000610508940895E894BB2766277727CB016C
:1010900097F90895A1E1B0E0E0E5F8E00C940E0CBA
:1010A0003C017F876E876A01FC011782168283816B
:1010B00081FD03C06FEF7FEF6FC39E012F5F3F4F36
:1010C000398B288BF3012381EE85FF8523FD8591E4
:1010D00023FF8191FF87EE87882309F45AC3853265
:1010E00051F4EE85FF8523FD859123FF8191FF87D4
:1010F000EE87853229F490E0B3010E94640EE2CFBE
:10110000982F10E0882499241032B0F49B3269F0B3
:101110009C3228F4903251F0933271F40BC09D321E
:1011200039F0903349F4116028C01260146025C072
:10113000186023C0106121C017FD2AC0892F805379
:101140008A3078F416FF06C0FAE09F9E902C112496
:10115000980E13C03AE0839E802C1124880E1062F2
:101160000CC09E3221F416FD14C3106406C09C36D8
:1011700011F4106802C0983659F4EE85FF8523FDFE
:10118000959123FF9191FF87EE87992309F0BCCFBA
:10119000892F8554833020F4812F8061905E07C0B1
:1011A000892F8556833008F09FC1812F8F7E86FD61
:1011B00002C076E0972E6FE3F62EF822953619F4EA
:1011C000F0E4FF2A07C0963619F420E8F22A02C09C
:1011D00091109A94F7FE0AC03BE3391518F45CE3CA
:1011E000B52E02C0B92CB39427E009C047E04915D9
:1011F00020F4BB2447E0942EF7CF292DBB24C60151
:1012000004969D878C87F60160817181828193812C
:10121000AE014F5F5F4F0B2D0E94660D6C0109817F
:10122000202E332400FF04C003FD02C01DE209C0CC
:10123000F1FE02C01BE205C0F2FC02C010E001C0DA
:1012400010E2C1018C709070892BB9F1112311F457
:1012500083E001C084E0881510F088240AC0881A51
:10126000F3FC07C080E290E0B3010E94640E8A9410
:10127000C9F7112329F0812F90E0B3010E94640E79
:1012800023FE03C00CEA10E00EC000EB10E00BC020
:10129000E114F10409F0805290E0B3010E94640E61
:1012A0000F5F1F4F05C0EF2CFF24F0E1EF22FF245A
:1012B000F8018491882361F714C1F7FE12C0BC0CB9
:1012C00024FE04C08A81813309F4BA941B141CF0F3
:1012D000BB24B3942DC0F8E0FB1550F538E0B32ED5
:1012E00027C0F6FC25C0892D90E08C159D054CF09B
:1012F0002CEFC2162FEFD20624F030E8F32A01C0FB
:101300009A94992049F0E2E0F0E0EC0FFD1FE90D1E
:10131000F11D80818033A1F3F7FE0AC0B92CB3948C
:10132000892D90E0C816D90614F0992401C09C18A4
:10133000F7FC03C025E030E009C01C141D041CF0BC
:1013400021E030E003C096012F5F3F4F112311F0E1
:101350002F5F3F4F992029F0892D90E00196280FAB
:10136000391F882D90E02817390714F0882401C010
:10137000821A4F2C5524C20189709070892B39F044
:1013800008C080E290E0B3010E94640E8A94882035
:10139000C1F7112329F0812F90E0B3010E94640E60
:1013A00043FE07C008C080E390E0B3010E94640ED2
:1013B0008A948820C1F7F7FE46C08601D7FE02C096
:1013C00000E010E076010894E11CF11CE01AF10A3B
:1013D00041E050E04C0F5D1FE40EF51E26014B1856
:1013E0005108892D90E0AA24BB24A81AB90A5FEFFE
:1013F0000F3F150729F48EE290E0B3010E94640EBE
:10140000C016D10634F0401651061CF4F701808155
:1014100001C080E3015010400894E11CF11C0A1542
:101420001B052CF090E0B3010E94640EE0CF0C1578
:101430001D0539F49A81963318F4953311F424FE7E
:1014400081E390E04BC08A81813309F00F7E90E008
:10145000B3010E94640E9920A1F08EE290E0B301E6
:101460000E94640E12E0E1E0F0E0EC0FFD1FE10FDE
:10147000F11D1F5F808190E0B3010E94640E9A9479
:1014800091F744FC03C085E690E002C085E490E05B
:10149000B3010E94640ED7FC05C0C114D10441F40D
:1014A00004FF06C0D094C194D108D3948DE201C04A
:1014B0008BE290E0B3010E94640E80E305C08F5F71
:1014C00026EF3FEFC20ED31E3AE0C316D104BCF79D
:1014D00090E0B3010E94640EC601C096B3010E9461
:1014E000640ECC84DD8452C1933631F0933799F089
:1014F000933509F059C023C0F601808189835E01CC
:101500000894A11CB11C22E030E0C20ED31E21E0E1
:10151000E22EF12C12C0F601A080B18016FD03C0AE
:101520006FEF7FEF02C0692D70E022E030E0C20E65
:10153000D31EC5010E94590E7C011F7713C0F6010E
:10154000A080B18016FD03C06FEF7FEF02C0692D50
:1015500070E022E030E0C20ED31EC5010E943E0EB4
:101560007C01106813FF07C01BC080E290E0B3014C
:101570000E94640E8A94882D90E0E816F906A8F37C
:101580000FC0F50117FD859117FF81915F0190E074
:10159000B3010E94640E81108A940894E108F10856
:1015A000E114F10471F7F2C0943611F0993689F51F
:1015B00017FF08C0F601208131814281538184E008
:1015C00090E00AC0F601808191819C01442737FD9B
:1015D0004095542F82E090E0C80ED91E9FE6F92E68
:1015E000F12257FF09C050954095309521953F4F06
:1015F0004F4F5F4F90E8F92ACA01B901AE014F5F22
:101600005F4F2AE030E00E94B40EE82EE889EE1A1F
:1016100041C0953721F41F7E2AE030E01CC0197FBD
:101620009F3661F0903720F4983509F0B2C00FC0B2
:10163000903739F0983709F0ACC004C028E030E0AA
:101640000AC0106114FD146020E130E004C014FDF4
:10165000166020E132E017FF08C0F6016081718159
:101660008281938144E050E008C0F601808191813D
:10167000BC0180E090E042E050E0C40ED51EAE0117
:101680004F5F5F4F0E94B40EE82E5889E51A8FE72E
:10169000F82EF122F6FE0BC08EEFF822E91438F492
:1016A000F4FE07C0F2FC05C09FEEF92202C01E2D19
:1016B00001C0192DF4FE0DC0FE01EE0DF11D80815B
:1016C000803319F4E9EEFE2208C01F5FF2FE05C068
:1016D00003C08F2D867809F01F5F0F2DF3FC14C017
:1016E000F0FE0FC0181510F09E2C0BC09E2C980C0D
:1016F000911A182D06C080E290E0B3010E94640E9A
:101700001F5F1815C0F304C0181510F4811A01C02A
:10171000882404FF0FC080E390E0B3010E94640EB0
:1017200002FF1DC001FD03C088E790E00EC088E500
:1017300090E00BC0802F867891F001FF02C08BE211
:1017400001C080E2F7FC8DE290E0B3010E94640EDC
:1017500006C080E390E0B3010E94640E9A94E914FD
:10176000C0F3EA94E1E0F0E0EC0FFD1FEE0DF11D97
:10177000808190E0B3010E94640EEE2091F706C0D4
:1017800080E290E0B3010E94640E8A948820C1F741
:1017900099CCF30166817781CB016196E2E10C94EB
:1017A0002A0CA1E21A2EAA1BBB1BFD010DC0AA1F09
:1017B000BB1FEE1FFF1FA217B307E407F50720F0BA
:1017C000A21BB30BE40BF50B661F771F881F991F35
:1017D0001A9469F760957095809590959B01AC017E
:1017E000BD01CF01089597FB092E05260ED057FDA8
:1017F00004D0D7DF0AD0001C38F4509540953095BE
:1018000021953F4F4F4F5F4F0895F6F79095809584
:10181000709561957F4F8F4F9F4F08952F923F9204
:101820004F925F926F927F928F929F92AF92BF92F0
:10183000CF92DF92EF92FF920F931F93CF93DF939C
:10184000CDB7DEB7CA1BDB0B0FB6F894DEBF0FBEF9
:10185000CDBF09942A88398848885F846E847D8446
:101860008C849B84AA84B984C884DF80EE80FD8048
:101870000C811B81AA81B981CE0FD11D0FB6F894BE
:10188000DEBF0FBECDBFED0108950F931F93CF9321
:10189000DF93689F8001699F100D789F100D1124C0
:1018A000C8010E94610CEC01009729F060E070E033
:1018B000A8010E94520ECE01DF91CF911F910F918E
:1018C0000895CF93DF93BC018230910510F462E05C
:1018D00070E0A0916701B0916801ED01E0E0F0E0F7
:1018E00040E050E021C0888199818617970769F40C
:1018F0008A819B81309719F09383828304C09093EF
:10190000680180936701FE0134C06817790738F4D5
:101910004115510519F08417950708F4AC01FE0133
:101920008A819B819C01E9012097E9F641155105C7
:10193000A9F1CA01861B970B049708F4BA01E0E0ED
:10194000F0E02AC08D919C91119784179507F9F4C6
:101950006417750781F412968D919C9113973097B7
:1019600019F09383828304C0909368018093670188
:10197000FD0132964FC0CA01861B970BFD01E80F8F
:10198000F91F6193719302978D939C9343C0FD015E
:10199000828193819C01D9011097A1F68091650104
:1019A00090916601892B41F480911201909113016D
:1019B0009093660180936501409114015091150147
:1019C0004115510541F44DB75EB7809110019091DA
:1019D0001101481B590B20916501309166012417B4
:1019E0003507B0F4CA01821B930B8617970780F066
:1019F000AB014E5F5F4F8417950750F0420F531FA6
:101A00005093660140936501F9016193719302C09F
:101A1000E0E0F0E0CF01DF91CF910895CF93DF9325
:101A2000009709F450C0EC0122971B821A82A09102
:101A30006701B0916801109709F140E050E0AC17E0
:101A4000BD0708F1BB83AA83FE0121913191E20F0A
:101A5000F31FAE17BF0779F48D919C911197280F52
:101A6000391F2E5F3F4F3983288312968D919C91A9
:101A700013979B838A834115510571F4D0936801B4
:101A8000C093670120C012968D919C911397AD0170
:101A9000009711F0DC01D3CFFA01D383C2832191E7
:101AA0003191E20FF31FCE17DF0769F48881998126
:101AB000280F391F2E5F3F4FFA01318320838A811F
:101AC0009B8193838283DF91CF910895283008F022
:101AD00027E03327DA01990F311D87FD91600096C9
:101AE0006105710539F432602E5F3D9330E32A952C
:101AF000E1F708959F3F30F080387105610509F0E6
:101B00003C5F3C5F3D93913008F08068911DDF930E
:101B1000CF931F930F93FF92EF92192F987F969573
:101B2000E92F96959695E90FFF27E25FFE4F9927DB
:101B30003327EE24FF24A701E701059008940794BA
:101B400028F4360FE71EF81E491F511D660F771F38
:101B5000881F991F0694A1F70590079428F4E70EB3
:101B6000F81E491F561FC11D770F881F991F661F3A
:101B70000694A1F70590079428F4F80E491F561F04
:101B8000C71FD11D880F991F661F771F0694A1F7E5
:101B90000590079420F4490F561FC71FD81F990FAF
:101BA000661F771F881F0694A9F7849110951770F8
:101BB00041F0D695C79557954795F794E7941A95B0
:101BC000C1F7E4EBF0E068941590159135916591BB
:101BD000959105907FE27395E118F10A430B560B3E
:101BE000C90BD009C0F7E10CF11E431F561FC91FD6
:101BF000D01D7EF4703311F48A95E6CFE89401503D
:101C000030F0080F0AF40027021708F4202F23955C
:101C1000022F7A3328F079E37D932A95E9F710C0F3
:101C20007D932A9589F6069497956795379517952C
:101C30001794E118F10A430B560BC90BD00998F021
:101C400023957E9173957A3308F070E37C9320138B
:101C5000B8F77E9170617D9330F0839571E37D9349
:101C600070E32A95E1F71124EF90FF900F911F91F7
:101C7000CF91DF91992787FD90950895FC010590FC
:101C8000615070400110D8F7809590958E0F9F1F7E
:101C90000895FB01DC0102C001900D9241505040BB
:101CA000D8F70895DC0101C06D9341505040E0F732
:101CB0000895FC016150704001900110D8F78095A3
:101CC00090958E0F9F1F08950F931F93CF93DF93CF
:101CD0008C01EB018B8181FF1BC082FF0DC02E8127
:101CE0003F818C819D812817390764F4E881F9814F
:101CF0000193F983E88306C0E885F985802F09956B
:101D0000892B31F48E819F8101969F838E8302C03F
:101D10000FEF1FEFC801DF91CF911F910F91089531
:101D2000AEE0B0E0E6E9FEE00C941C0C0D891E89E3
:101D300086E08C831A8309838FEF9FE79E838D83D0
:101D40009E01275E3F4FCE0101966F89788DA901D4
:101D50000E944A082F813885020F131FF801108254
:101D60002E96E4E00C94380CFA01AA27283051F1A1
:101D7000203181F1E8946F936E7F6E5F7F4F8F4FBC
:101D80009F4FAF4FB1E03ED0B4E03CD0670F781F1B
:101D9000891F9A1FA11D680F791F8A1F911DA11D00
:101DA0006A0F711D811D911DA11D20D009F4689439
:101DB0003F912AE0269F11243019305D3193DEF6E1
:101DC000CF010895462F4770405D4193B3E00FD097
:101DD000C9F7F6CF462F4F70405D4A3318F0495D82
:101DE00031FD4052419302D0A9F7EACFB4E0A69565
:101DF0009795879577956795BA95C9F70097610587
:101E0000710508959B01AC010A2E069457954795DC
:101E100037952795BA95C9F7620F731F841F951FD1
:081E2000A01D0895F894FFCF06
:101E2800723A2025640A25660A25660A25660A008C
:0A1E38002000690100000100000015
:00000001FF
